{
  "contractName": "SpeakItOut",
  "abi": [
    {
      "constant": true,
      "inputs": [],
      "name": "count",
      "outputs": [
        {
          "name": "",
          "type": "uint256"
        }
      ],
      "payable": false,
      "stateMutability": "view",
      "type": "function",
      "signature": "0x06661abd"
    },
    {
      "constant": true,
      "inputs": [
        {
          "name": "",
          "type": "uint256"
        }
      ],
      "name": "members",
      "outputs": [
        {
          "name": "",
          "type": "address"
        }
      ],
      "payable": false,
      "stateMutability": "view",
      "type": "function",
      "signature": "0x5daf08ca"
    },
    {
      "constant": true,
      "inputs": [
        {
          "name": "",
          "type": "uint256"
        }
      ],
      "name": "blogs",
      "outputs": [
        {
          "name": "id",
          "type": "uint256"
        },
        {
          "name": "title",
          "type": "string"
        },
        {
          "name": "data",
          "type": "string"
        },
        {
          "name": "author",
          "type": "address"
        },
        {
          "name": "authorName",
          "type": "string"
        }
      ],
      "payable": false,
      "stateMutability": "view",
      "type": "function",
      "signature": "0x80f052d8"
    },
    {
      "constant": true,
      "inputs": [
        {
          "name": "",
          "type": "address"
        }
      ],
      "name": "profiles",
      "outputs": [
        {
          "name": "firstName",
          "type": "string"
        },
        {
          "name": "lastName",
          "type": "string"
        },
        {
          "name": "isExists",
          "type": "bool"
        }
      ],
      "payable": false,
      "stateMutability": "view",
      "type": "function",
      "signature": "0xbbe15627"
    },
    {
      "constant": true,
      "inputs": [],
      "name": "blogCount",
      "outputs": [
        {
          "name": "",
          "type": "uint256"
        }
      ],
      "payable": false,
      "stateMutability": "view",
      "type": "function",
      "signature": "0xe8824299"
    },
    {
      "inputs": [],
      "payable": false,
      "stateMutability": "nonpayable",
      "type": "constructor",
      "signature": "constructor"
    },
    {
      "anonymous": false,
      "inputs": [
        {
          "indexed": true,
          "name": "from",
          "type": "address"
        },
        {
          "indexed": true,
          "name": "to",
          "type": "address"
        },
        {
          "indexed": false,
          "name": "message",
          "type": "string"
        },
        {
          "indexed": false,
          "name": "encryption",
          "type": "bytes32"
        },
        {
          "indexed": false,
          "name": "msgCount",
          "type": "uint256"
        }
      ],
      "name": "messageSentEvent",
      "type": "event",
      "signature": "0x00be58ce117962b54d0a675cf9b2bd52d3918522d0419169faaec1c81b942663"
    },
    {
      "constant": false,
      "inputs": [
        {
          "name": "firstName",
          "type": "string"
        },
        {
          "name": "lastName",
          "type": "string"
        }
      ],
      "name": "addAccount",
      "outputs": [],
      "payable": false,
      "stateMutability": "nonpayable",
      "type": "function",
      "signature": "0x4479a70f"
    },
    {
      "constant": true,
      "inputs": [],
      "name": "getCount",
      "outputs": [
        {
          "name": "",
          "type": "uint256"
        }
      ],
      "payable": false,
      "stateMutability": "view",
      "type": "function",
      "signature": "0xa87d942c"
    },
    {
      "constant": false,
      "inputs": [
        {
          "name": "title",
          "type": "string"
        },
        {
          "name": "data",
          "type": "string"
        }
      ],
      "name": "addBlog",
      "outputs": [],
      "payable": false,
      "stateMutability": "nonpayable",
      "type": "function",
      "signature": "0xebbca87a"
    },
    {
      "constant": true,
      "inputs": [],
      "name": "getBlogCount",
      "outputs": [
        {
          "name": "",
          "type": "uint256"
        }
      ],
      "payable": false,
      "stateMutability": "view",
      "type": "function",
      "signature": "0xc8b71c95"
    },
    {
      "constant": false,
      "inputs": [
        {
          "name": "to",
          "type": "address"
        },
        {
          "name": "message",
          "type": "string"
        },
        {
          "name": "encryption",
          "type": "bytes32"
        }
      ],
      "name": "sendMessage",
      "outputs": [],
      "payable": false,
      "stateMutability": "nonpayable",
      "type": "function",
      "signature": "0x64ee3588"
    },
    {
      "constant": false,
      "inputs": [
        {
          "name": "rec",
          "type": "address"
        }
      ],
      "name": "sendETH",
      "outputs": [],
      "payable": true,
      "stateMutability": "payable",
      "type": "function",
      "signature": "0x21b1e5f8"
    }
  ],
  "bytecode": "0x608060405260006005553480156200001657600080fd5b50620000846040805190810160405280600581526020017f48454c4c4f0000000000000000000000000000000000000000000000000000008152506102406040519081016040528061020181526020016200196561020191396200008a640100000000026401000000009004565b620004a9565b6200009462000390565b6000803373ffffffffffffffffffffffffffffffffffffffff1673ffffffffffffffffffffffffffffffffffffffff16815260200190815260200160002060606040519081016040529081600082018054600181600116156101000203166002900480601f0160208091040260200160405190810160405280929190818152602001828054600181600116156101000203166002900480156200017b5780601f106200014f576101008083540402835291602001916200017b565b820191906000526020600020905b8154815290600101906020018083116200015d57829003601f168201915b50505050508152602001600182018054600181600116156101000203166002900480601f016020809104026020016040519081016040528092919081815260200182805460018160011615610100020316600290048015620002215780601f10620001f55761010080835404028352916020019162000221565b820191906000526020600020905b8154815290600101906020018083116200020357829003601f168201915b505050505081526020016002820160009054906101000a900460ff16151515158152505090506060816000015190506200025a620003b4565b60a060405190810160405280600360008154809291906001019190505581526020018681526020018581526020013373ffffffffffffffffffffffffffffffffffffffff1681526020018381525090506002819080600181540180825580915050906001820390600052602060002090600502016000909192909190915060008201518160000155602082015181600101908051906020019062000300929190620003fa565b5060408201518160020190805190602001906200031f929190620003fa565b5060608201518160030160006101000a81548173ffffffffffffffffffffffffffffffffffffffff021916908373ffffffffffffffffffffffffffffffffffffffff160217905550608082015181600401908051906020019062000385929190620003fa565b505050505050505050565b60606040519081016040528060608152602001606081526020016000151581525090565b60a060405190810160405280600081526020016060815260200160608152602001600073ffffffffffffffffffffffffffffffffffffffff168152602001606081525090565b828054600181600116156101000203166002900490600052602060002090601f016020900481019282601f106200043d57805160ff19168380011785556200046e565b828001600101855582156200046e579182015b828111156200046d57825182559160200191906001019062000450565b5b5090506200047d919062000481565b5090565b620004a691905b80821115620004a257600081600090555060010162000488565b5090565b90565b6114ac80620004b96000396000f3fe6080604052600436106100af576000357c0100000000000000000000000000000000000000000000000000000000900463ffffffff16806306661abd146100b457806321b1e5f8146100df5780634479a70f146101235780635daf08ca1461028257806364ee3588146102fd57806380f052d8146103ef578063a87d942c146105b5578063bbe15627146105e0578063c8b71c9514610721578063e88242991461074c578063ebbca87a14610777575b600080fd5b3480156100c057600080fd5b506100c96108d6565b6040518082815260200191505060405180910390f35b610121600480360360208110156100f557600080fd5b81019080803573ffffffffffffffffffffffffffffffffffffffff1690602001909291905050506108dc565b005b34801561012f57600080fd5b506102806004803603604081101561014657600080fd5b810190808035906020019064010000000081111561016357600080fd5b82018360208201111561017557600080fd5b8035906020019184600183028401116401000000008311171561019757600080fd5b91908080601f016020809104026020016040519081016040528093929190818152602001838380828437600081840152601f19601f820116905080830192505050505050509192919290803590602001906401000000008111156101fa57600080fd5b82018360208201111561020c57600080fd5b8035906020019184600183028401116401000000008311171561022e57600080fd5b91908080601f016020809104026020016040519081016040528093929190818152602001838380828437600081840152601f19601f82011690508083019250505050505050919291929050505061094b565b005b34801561028e57600080fd5b506102bb600480360360208110156102a557600080fd5b8101908080359060200190929190505050610ae8565b604051808273ffffffffffffffffffffffffffffffffffffffff1673ffffffffffffffffffffffffffffffffffffffff16815260200191505060405180910390f35b34801561030957600080fd5b506103ed6004803603606081101561032057600080fd5b81019080803573ffffffffffffffffffffffffffffffffffffffff1690602001909291908035906020019064010000000081111561035d57600080fd5b82018360208201111561036f57600080fd5b8035906020019184600183028401116401000000008311171561039157600080fd5b91908080601f016020809104026020016040519081016040528093929190818152602001838380828437600081840152601f19601f82011690508083019250505050505050919291929080359060200190929190505050610b26565b005b3480156103fb57600080fd5b506104286004803603602081101561041257600080fd5b8101908080359060200190929190505050610ccc565b6040518086815260200180602001806020018573ffffffffffffffffffffffffffffffffffffffff1673ffffffffffffffffffffffffffffffffffffffff16815260200180602001848103845288818151815260200191508051906020019080838360005b838110156104a857808201518184015260208101905061048d565b50505050905090810190601f1680156104d55780820380516001836020036101000a031916815260200191505b50848103835287818151815260200191508051906020019080838360005b8381101561050e5780820151818401526020810190506104f3565b50505050905090810190601f16801561053b5780820380516001836020036101000a031916815260200191505b50848103825285818151815260200191508051906020019080838360005b83811015610574578082015181840152602081019050610559565b50505050905090810190601f1680156105a15780820380516001836020036101000a031916815260200191505b509850505050505050505060405180910390f35b3480156105c157600080fd5b506105ca610ef9565b6040518082815260200191505060405180910390f35b3480156105ec57600080fd5b5061062f6004803603602081101561060357600080fd5b81019080803573ffffffffffffffffffffffffffffffffffffffff169060200190929190505050610f03565b60405180806020018060200184151515158152602001838103835286818151815260200191508051906020019080838360005b8381101561067d578082015181840152602081019050610662565b50505050905090810190601f1680156106aa5780820380516001836020036101000a031916815260200191505b50838103825285818151815260200191508051906020019080838360005b838110156106e35780820151818401526020810190506106c8565b50505050905090810190601f1680156107105780820380516001836020036101000a031916815260200191505b509550505050505060405180910390f35b34801561072d57600080fd5b5061073661106a565b6040518082815260200191505060405180910390f35b34801561075857600080fd5b50610761611077565b6040518082815260200191505060405180910390f35b34801561078357600080fd5b506108d46004803603604081101561079a57600080fd5b81019080803590602001906401000000008111156107b757600080fd5b8201836020820111156107c957600080fd5b803590602001918460018302840111640100000000831117156107eb57600080fd5b91908080601f016020809104026020016040519081016040528093929190818152602001838380828437600081840152601f19601f8201169050808301925050505050505091929192908035906020019064010000000081111561084e57600080fd5b82018360208201111561086057600080fd5b8035906020019184600183028401116401000000008311171561088257600080fd5b91908080601f016020809104026020016040519081016040528093929190818152602001838380828437600081840152601f19601f82011690508083019250505050505050919291929050505061107d565b005b60045481565b343373ffffffffffffffffffffffffffffffffffffffff163111151561090157600080fd5b8073ffffffffffffffffffffffffffffffffffffffff166108fc349081150290604051600060405180830381858888f19350505050158015610947573d6000803e3d6000fd5b5050565b6000803373ffffffffffffffffffffffffffffffffffffffff1673ffffffffffffffffffffffffffffffffffffffff16815260200190815260200160002060020160009054906101000a900460ff161515156109a657600080fd5b6109ae611371565b606060405190810160405280848152602001838152602001600115158152509050806000803373ffffffffffffffffffffffffffffffffffffffff1673ffffffffffffffffffffffffffffffffffffffff1681526020019081526020016000206000820151816000019080519060200190610a2a929190611395565b506020820151816001019080519060200190610a47929190611395565b5060408201518160020160006101000a81548160ff02191690831515021790555090505060013390806001815401808255809150509060018203906000526020600020016000909192909190916101000a81548173ffffffffffffffffffffffffffffffffffffffff021916908373ffffffffffffffffffffffffffffffffffffffff16021790555050600460008154809291906001019190505550505050565b600181815481101515610af757fe5b906000526020600020016000915054906101000a900473ffffffffffffffffffffffffffffffffffffffff1681565b6000803373ffffffffffffffffffffffffffffffffffffffff1673ffffffffffffffffffffffffffffffffffffffff16815260200190815260200160002060020160009054906101000a900460ff161515610b8057600080fd5b6000808473ffffffffffffffffffffffffffffffffffffffff1673ffffffffffffffffffffffffffffffffffffffff16815260200190815260200160002060020160009054906101000a900460ff161515610bda57600080fd5b6005600081548092919060010191905055508273ffffffffffffffffffffffffffffffffffffffff163373ffffffffffffffffffffffffffffffffffffffff167ebe58ce117962b54d0a675cf9b2bd52d3918522d0419169faaec1c81b94266384846005546040518080602001848152602001838152602001828103825285818151815260200191508051906020019080838360005b83811015610c8b578082015181840152602081019050610c70565b50505050905090810190601f168015610cb85780820380516001836020036101000a031916815260200191505b5094505050505060405180910390a3505050565b600281815481101515610cdb57fe5b9060005260206000209060050201600091509050806000015490806001018054600181600116156101000203166002900480601f016020809104026020016040519081016040528092919081815260200182805460018160011615610100020316600290048015610d8d5780601f10610d6257610100808354040283529160200191610d8d565b820191906000526020600020905b815481529060010190602001808311610d7057829003601f168201915b505050505090806002018054600181600116156101000203166002900480601f016020809104026020016040519081016040528092919081815260200182805460018160011615610100020316600290048015610e2b5780601f10610e0057610100808354040283529160200191610e2b565b820191906000526020600020905b815481529060010190602001808311610e0e57829003601f168201915b5050505050908060030160009054906101000a900473ffffffffffffffffffffffffffffffffffffffff1690806004018054600181600116156101000203166002900480601f016020809104026020016040519081016040528092919081815260200182805460018160011615610100020316600290048015610eef5780601f10610ec457610100808354040283529160200191610eef565b820191906000526020600020905b815481529060010190602001808311610ed257829003601f168201915b5050505050905085565b6000600454905090565b6000602052806000526040600020600091509050806000018054600181600116156101000203166002900480601f016020809104026020016040519081016040528092919081815260200182805460018160011615610100020316600290048015610faf5780601f10610f8457610100808354040283529160200191610faf565b820191906000526020600020905b815481529060010190602001808311610f9257829003601f168201915b505050505090806001018054600181600116156101000203166002900480601f01602080910402602001604051908101604052809291908181526020018280546001816001161561010002031660029004801561104d5780601f106110225761010080835404028352916020019161104d565b820191906000526020600020905b81548152906001019060200180831161103057829003601f168201915b5050505050908060020160009054906101000a900460ff16905083565b6000600280549050905090565b60035481565b611085611371565b6000803373ffffffffffffffffffffffffffffffffffffffff1673ffffffffffffffffffffffffffffffffffffffff16815260200190815260200160002060606040519081016040529081600082018054600181600116156101000203166002900480601f0160208091040260200160405190810160405280929190818152602001828054600181600116156101000203166002900480156111685780601f1061113d57610100808354040283529160200191611168565b820191906000526020600020905b81548152906001019060200180831161114b57829003601f168201915b50505050508152602001600182018054600181600116156101000203166002900480601f01602080910402602001604051908101604052809291908181526020018280546001816001161561010002031660029004801561120a5780601f106111df5761010080835404028352916020019161120a565b820191906000526020600020905b8154815290600101906020018083116111ed57829003601f168201915b505050505081526020016002820160009054906101000a900460ff1615151515815250509050606081600001519050611241611415565b60a060405190810160405280600360008154809291906001019190505581526020018681526020018581526020013373ffffffffffffffffffffffffffffffffffffffff168152602001838152509050600281908060018154018082558091505090600182039060005260206000209060050201600090919290919091506000820151816000015560208201518160010190805190602001906112e5929190611395565b506040820151816002019080519060200190611302929190611395565b5060608201518160030160006101000a81548173ffffffffffffffffffffffffffffffffffffffff021916908373ffffffffffffffffffffffffffffffffffffffff1602179055506080820151816004019080519060200190611366929190611395565b505050505050505050565b60606040519081016040528060608152602001606081526020016000151581525090565b828054600181600116156101000203166002900490600052602060002090601f016020900481019282601f106113d657805160ff1916838001178555611404565b82800160010185558215611404579182015b828111156114035782518255916020019190600101906113e8565b5b509050611411919061145b565b5090565b60a060405190810160405280600081526020016060815260200160608152602001600073ffffffffffffffffffffffffffffffffffffffff168152602001606081525090565b61147d91905b80821115611479576000816000905550600101611461565b5090565b9056fea165627a7a723058207bdd28d005608cd24566924423a9569a11f027f93a8e9d292f16bd5d88dd8622002948656c6c6f206973206120736f6e6720627920427269746973682073696e6765722d736f6e67777269746572204164656c652c2072656c6561736564206f6e203233204f63746f626572203230313520627920584c205265636f7264696e677320617320746865206c6561642073696e676c652066726f6d206865722074686972642073747564696f20616c62756d2c20323520323031352e204164656c6520636f2d77726f74652074686520736f6e672077697468206865722070726f64756365722c2047726567204b75727374696e2e2048656c6c6f2069732061207069616e6f2062616c6c6164207769746820736f756c20696e666c75656e6365732c20616e64206c797269637320746861742064697363757373207468656d6573206f66206e6f7374616c67696120616e64207265677265742e2055706f6e2072656c656173652c2074686520736f6e6720776173206163636c61696d6564206279206d7573696320637269746963732c2077686f20636f6d7061726564206974206661766f757261626c7920746f204164656c65732070726576696f757320776f726b20616e6420707261697365642074686520736f6e6773206c797269637320616e64204164656c657320766f63616c732e20497420776173207265636f7264656420696e204c6f6e646f6e73204d6574726f706f6c69732053747564696f732e",
  "source": "pragma solidity ^0.5.0;\r\n\r\ncontract SpeakItOut {\r\n        struct ProfileDetails {\r\n        string firstName;\r\n        string lastName;\r\n        bool isExists;\r\n    }\r\n\r\n\r\n    struct Blog {\r\n        uint id;\r\n        string title;\r\n        string data;\r\n        address author;\r\n        string authorName; \r\n    }\r\n\r\n    mapping(address => ProfileDetails) public profiles;\r\n    address[] public members; \r\n\r\n    Blog[] public blogs;\r\n    uint public blogCount;\r\n    uint public count;\r\n    constructor() public{\r\n        addBlog('HELLO','Hello is a song by British singer-songwriter Adele, released on 23 October 2015 by XL Recordings as the lead single from her third studio album, 25 2015. Adele co-wrote the song with her producer, Greg Kurstin. Hello is a piano ballad with soul influences, and lyrics that discuss themes of nostalgia and regret. Upon release, the song was acclaimed by music critics, who compared it favourably to Adeles previous work and praised the songs lyrics and Adeles vocals. It was recorded in Londons Metropolis Studios.');\r\n\r\n\r\n    }\r\n\r\n       uint msgCount = 0;\r\n    event messageSentEvent(address indexed from, address indexed to, string message, bytes32 encryption,uint msgCount);\r\n\r\n\r\n\r\n\r\n    //Add a new Account\r\n    function addAccount(string memory firstName, string memory lastName) public{\r\n        require(!profiles[msg.sender].isExists);\r\n\r\n        ProfileDetails memory profileDetails = ProfileDetails(firstName,lastName,true);\r\n        profiles[msg.sender] = profileDetails;\r\n        members.push(msg.sender);\r\n        count++;\r\n    }\r\n\r\n    \r\n\r\n    function getCount() public view returns(uint){\r\n      return count;\r\n    }\r\n    function addBlog(string memory title,string memory data) public {\r\n        ProfileDetails memory profile = profiles[msg.sender];\r\n        string memory author = profile.firstName;\r\n        Blog memory blog = Blog(blogCount++,title,data,msg.sender,author);\r\n        blogs.push(blog);\r\n        \r\n    }\r\n    function getBlogCount() public view returns(uint) {\r\n        return blogs.length;\r\n    }\r\n    // function to send messages\r\n    function sendMessage(address to, string memory message, bytes32 encryption) public {\r\n        require(profiles[msg.sender].isExists);\r\n        require(profiles[to].isExists);\r\n\r\n        msgCount++;\r\n        emit messageSentEvent(msg.sender, to, message, encryption, msgCount);\r\n    }\r\n\r\n    function sendETH(address payable rec) payable public {\r\n        require(msg.sender.balance  > msg.value);\r\n        rec.transfer(msg.value);\r\n\r\n    }\r\n\r\n\r\n}\r\n",
  "sourcePath": "F:/Courses/Blockchain/Project/speakitout/contracts/SpeakItOut.sol",
  "compiler": {
    "name": "solc",
    "version": "0.5.0+commit.1d4f565a.Emscripten.clang"
  },
  "schemaVersion": "3.0.6",
  "updatedAt": "2019-04-29T17:24:11.062Z",
  "devdoc": {
    "methods": {}
  },
  "userdoc": {
    "methods": {}
  }
}